{
  "_format": "hh-sol-artifact-1",
  "contractName": "NFTMarketplace",
  "sourceName": "contracts/NFTMarketplace.sol",
  "abi": [
    {
      "inputs": [],
      "stateMutability": "nonpayable",
      "type": "constructor"
    },
    {
      "inputs": [
        {
          "internalType": "address",
          "name": "sender",
          "type": "address"
        },
        {
          "internalType": "uint256",
          "name": "tokenId",
          "type": "uint256"
        },
        {
          "internalType": "address",
          "name": "owner",
          "type": "address"
        }
      ],
      "name": "ERC721IncorrectOwner",
      "type": "error"
    },
    {
      "inputs": [
        {
          "internalType": "address",
          "name": "operator",
          "type": "address"
        },
        {
          "internalType": "uint256",
          "name": "tokenId",
          "type": "uint256"
        }
      ],
      "name": "ERC721InsufficientApproval",
      "type": "error"
    },
    {
      "inputs": [
        {
          "internalType": "address",
          "name": "approver",
          "type": "address"
        }
      ],
      "name": "ERC721InvalidApprover",
      "type": "error"
    },
    {
      "inputs": [
        {
          "internalType": "address",
          "name": "operator",
          "type": "address"
        }
      ],
      "name": "ERC721InvalidOperator",
      "type": "error"
    },
    {
      "inputs": [
        {
          "internalType": "address",
          "name": "owner",
          "type": "address"
        }
      ],
      "name": "ERC721InvalidOwner",
      "type": "error"
    },
    {
      "inputs": [
        {
          "internalType": "address",
          "name": "receiver",
          "type": "address"
        }
      ],
      "name": "ERC721InvalidReceiver",
      "type": "error"
    },
    {
      "inputs": [
        {
          "internalType": "address",
          "name": "sender",
          "type": "address"
        }
      ],
      "name": "ERC721InvalidSender",
      "type": "error"
    },
    {
      "inputs": [
        {
          "internalType": "uint256",
          "name": "tokenId",
          "type": "uint256"
        }
      ],
      "name": "ERC721NonexistentToken",
      "type": "error"
    },
    {
      "anonymous": false,
      "inputs": [
        {
          "indexed": true,
          "internalType": "address",
          "name": "owner",
          "type": "address"
        },
        {
          "indexed": true,
          "internalType": "address",
          "name": "approved",
          "type": "address"
        },
        {
          "indexed": true,
          "internalType": "uint256",
          "name": "tokenId",
          "type": "uint256"
        }
      ],
      "name": "Approval",
      "type": "event"
    },
    {
      "anonymous": false,
      "inputs": [
        {
          "indexed": true,
          "internalType": "address",
          "name": "owner",
          "type": "address"
        },
        {
          "indexed": true,
          "internalType": "address",
          "name": "operator",
          "type": "address"
        },
        {
          "indexed": false,
          "internalType": "bool",
          "name": "approved",
          "type": "bool"
        }
      ],
      "name": "ApprovalForAll",
      "type": "event"
    },
    {
      "anonymous": false,
      "inputs": [
        {
          "indexed": false,
          "internalType": "uint256",
          "name": "_fromTokenId",
          "type": "uint256"
        },
        {
          "indexed": false,
          "internalType": "uint256",
          "name": "_toTokenId",
          "type": "uint256"
        }
      ],
      "name": "BatchMetadataUpdate",
      "type": "event"
    },
    {
      "anonymous": false,
      "inputs": [
        {
          "indexed": false,
          "internalType": "uint256",
          "name": "_tokenId",
          "type": "uint256"
        }
      ],
      "name": "MetadataUpdate",
      "type": "event"
    },
    {
      "anonymous": false,
      "inputs": [
        {
          "indexed": true,
          "internalType": "uint256",
          "name": "tokenId",
          "type": "uint256"
        },
        {
          "indexed": false,
          "internalType": "address",
          "name": "owner",
          "type": "address"
        },
        {
          "indexed": false,
          "internalType": "address",
          "name": "seller",
          "type": "address"
        },
        {
          "indexed": false,
          "internalType": "uint256",
          "name": "price",
          "type": "uint256"
        },
        {
          "indexed": false,
          "internalType": "bool",
          "name": "currentlyListed",
          "type": "bool"
        }
      ],
      "name": "TokenListedSuccess",
      "type": "event"
    },
    {
      "anonymous": false,
      "inputs": [
        {
          "indexed": true,
          "internalType": "address",
          "name": "from",
          "type": "address"
        },
        {
          "indexed": true,
          "internalType": "address",
          "name": "to",
          "type": "address"
        },
        {
          "indexed": true,
          "internalType": "uint256",
          "name": "tokenId",
          "type": "uint256"
        }
      ],
      "name": "Transfer",
      "type": "event"
    },
    {
      "inputs": [
        {
          "internalType": "address",
          "name": "to",
          "type": "address"
        },
        {
          "internalType": "uint256",
          "name": "tokenId",
          "type": "uint256"
        }
      ],
      "name": "approve",
      "outputs": [],
      "stateMutability": "nonpayable",
      "type": "function"
    },
    {
      "inputs": [
        {
          "internalType": "address",
          "name": "owner",
          "type": "address"
        }
      ],
      "name": "balanceOf",
      "outputs": [
        {
          "internalType": "uint256",
          "name": "",
          "type": "uint256"
        }
      ],
      "stateMutability": "view",
      "type": "function"
    },
    {
      "inputs": [
        {
          "internalType": "string",
          "name": "tokenURI",
          "type": "string"
        },
        {
          "internalType": "uint256",
          "name": "price",
          "type": "uint256"
        }
      ],
      "name": "createToken",
      "outputs": [
        {
          "internalType": "uint256",
          "name": "",
          "type": "uint256"
        }
      ],
      "stateMutability": "payable",
      "type": "function"
    },
    {
      "inputs": [
        {
          "internalType": "uint256",
          "name": "tokenId",
          "type": "uint256"
        }
      ],
      "name": "executeSale",
      "outputs": [],
      "stateMutability": "payable",
      "type": "function"
    },
    {
      "inputs": [],
      "name": "getAllNFTs",
      "outputs": [
        {
          "components": [
            {
              "internalType": "uint256",
              "name": "tokenId",
              "type": "uint256"
            },
            {
              "internalType": "address payable",
              "name": "owner",
              "type": "address"
            },
            {
              "internalType": "address payable",
              "name": "seller",
              "type": "address"
            },
            {
              "internalType": "uint256",
              "name": "price",
              "type": "uint256"
            },
            {
              "internalType": "bool",
              "name": "currentlyListed",
              "type": "bool"
            }
          ],
          "internalType": "struct NFTMarketplace.ListedToken[]",
          "name": "",
          "type": "tuple[]"
        }
      ],
      "stateMutability": "view",
      "type": "function"
    },
    {
      "inputs": [
        {
          "internalType": "uint256",
          "name": "tokenId",
          "type": "uint256"
        }
      ],
      "name": "getApproved",
      "outputs": [
        {
          "internalType": "address",
          "name": "",
          "type": "address"
        }
      ],
      "stateMutability": "view",
      "type": "function"
    },
    {
      "inputs": [],
      "name": "getCurrentToken",
      "outputs": [
        {
          "internalType": "uint256",
          "name": "",
          "type": "uint256"
        }
      ],
      "stateMutability": "view",
      "type": "function"
    },
    {
      "inputs": [],
      "name": "getLatestIdToListedToken",
      "outputs": [
        {
          "components": [
            {
              "internalType": "uint256",
              "name": "tokenId",
              "type": "uint256"
            },
            {
              "internalType": "address payable",
              "name": "owner",
              "type": "address"
            },
            {
              "internalType": "address payable",
              "name": "seller",
              "type": "address"
            },
            {
              "internalType": "uint256",
              "name": "price",
              "type": "uint256"
            },
            {
              "internalType": "bool",
              "name": "currentlyListed",
              "type": "bool"
            }
          ],
          "internalType": "struct NFTMarketplace.ListedToken",
          "name": "",
          "type": "tuple"
        }
      ],
      "stateMutability": "view",
      "type": "function"
    },
    {
      "inputs": [],
      "name": "getListPrice",
      "outputs": [
        {
          "internalType": "uint256",
          "name": "",
          "type": "uint256"
        }
      ],
      "stateMutability": "view",
      "type": "function"
    },
    {
      "inputs": [
        {
          "internalType": "uint256",
          "name": "tokenId",
          "type": "uint256"
        }
      ],
      "name": "getListedTokenForId",
      "outputs": [
        {
          "components": [
            {
              "internalType": "uint256",
              "name": "tokenId",
              "type": "uint256"
            },
            {
              "internalType": "address payable",
              "name": "owner",
              "type": "address"
            },
            {
              "internalType": "address payable",
              "name": "seller",
              "type": "address"
            },
            {
              "internalType": "uint256",
              "name": "price",
              "type": "uint256"
            },
            {
              "internalType": "bool",
              "name": "currentlyListed",
              "type": "bool"
            }
          ],
          "internalType": "struct NFTMarketplace.ListedToken",
          "name": "",
          "type": "tuple"
        }
      ],
      "stateMutability": "view",
      "type": "function"
    },
    {
      "inputs": [],
      "name": "getMyNFTs",
      "outputs": [
        {
          "components": [
            {
              "internalType": "uint256",
              "name": "tokenId",
              "type": "uint256"
            },
            {
              "internalType": "address payable",
              "name": "owner",
              "type": "address"
            },
            {
              "internalType": "address payable",
              "name": "seller",
              "type": "address"
            },
            {
              "internalType": "uint256",
              "name": "price",
              "type": "uint256"
            },
            {
              "internalType": "bool",
              "name": "currentlyListed",
              "type": "bool"
            }
          ],
          "internalType": "struct NFTMarketplace.ListedToken[]",
          "name": "",
          "type": "tuple[]"
        }
      ],
      "stateMutability": "view",
      "type": "function"
    },
    {
      "inputs": [
        {
          "internalType": "address",
          "name": "owner",
          "type": "address"
        },
        {
          "internalType": "address",
          "name": "operator",
          "type": "address"
        }
      ],
      "name": "isApprovedForAll",
      "outputs": [
        {
          "internalType": "bool",
          "name": "",
          "type": "bool"
        }
      ],
      "stateMutability": "view",
      "type": "function"
    },
    {
      "inputs": [],
      "name": "name",
      "outputs": [
        {
          "internalType": "string",
          "name": "",
          "type": "string"
        }
      ],
      "stateMutability": "view",
      "type": "function"
    },
    {
      "inputs": [],
      "name": "owner",
      "outputs": [
        {
          "internalType": "address payable",
          "name": "",
          "type": "address"
        }
      ],
      "stateMutability": "view",
      "type": "function"
    },
    {
      "inputs": [
        {
          "internalType": "uint256",
          "name": "tokenId",
          "type": "uint256"
        }
      ],
      "name": "ownerOf",
      "outputs": [
        {
          "internalType": "address",
          "name": "",
          "type": "address"
        }
      ],
      "stateMutability": "view",
      "type": "function"
    },
    {
      "inputs": [
        {
          "internalType": "address",
          "name": "from",
          "type": "address"
        },
        {
          "internalType": "address",
          "name": "to",
          "type": "address"
        },
        {
          "internalType": "uint256",
          "name": "tokenId",
          "type": "uint256"
        }
      ],
      "name": "safeTransferFrom",
      "outputs": [],
      "stateMutability": "nonpayable",
      "type": "function"
    },
    {
      "inputs": [
        {
          "internalType": "address",
          "name": "from",
          "type": "address"
        },
        {
          "internalType": "address",
          "name": "to",
          "type": "address"
        },
        {
          "internalType": "uint256",
          "name": "tokenId",
          "type": "uint256"
        },
        {
          "internalType": "bytes",
          "name": "data",
          "type": "bytes"
        }
      ],
      "name": "safeTransferFrom",
      "outputs": [],
      "stateMutability": "nonpayable",
      "type": "function"
    },
    {
      "inputs": [
        {
          "internalType": "address",
          "name": "operator",
          "type": "address"
        },
        {
          "internalType": "bool",
          "name": "approved",
          "type": "bool"
        }
      ],
      "name": "setApprovalForAll",
      "outputs": [],
      "stateMutability": "nonpayable",
      "type": "function"
    },
    {
      "inputs": [
        {
          "internalType": "bytes4",
          "name": "interfaceId",
          "type": "bytes4"
        }
      ],
      "name": "supportsInterface",
      "outputs": [
        {
          "internalType": "bool",
          "name": "",
          "type": "bool"
        }
      ],
      "stateMutability": "view",
      "type": "function"
    },
    {
      "inputs": [],
      "name": "symbol",
      "outputs": [
        {
          "internalType": "string",
          "name": "",
          "type": "string"
        }
      ],
      "stateMutability": "view",
      "type": "function"
    },
    {
      "inputs": [
        {
          "internalType": "uint256",
          "name": "tokenId",
          "type": "uint256"
        }
      ],
      "name": "tokenURI",
      "outputs": [
        {
          "internalType": "string",
          "name": "",
          "type": "string"
        }
      ],
      "stateMutability": "view",
      "type": "function"
    },
    {
      "inputs": [
        {
          "internalType": "address",
          "name": "from",
          "type": "address"
        },
        {
          "internalType": "address",
          "name": "to",
          "type": "address"
        },
        {
          "internalType": "uint256",
          "name": "tokenId",
          "type": "uint256"
        }
      ],
      "name": "transferFrom",
      "outputs": [],
      "stateMutability": "nonpayable",
      "type": "function"
    },
    {
      "inputs": [
        {
          "internalType": "uint256",
          "name": "_listPrice",
          "type": "uint256"
        }
      ],
      "name": "updateListPrice",
      "outputs": [],
      "stateMutability": "nonpayable",
      "type": "function"
    }
  ],
  "bytecode": "0x6080604052662386f26fc10000600a5534801561001b57600080fd5b506040518060400160405280600e81526020016d4e46544d61726b6574706c61636560901b815250604051806040016040528060048152602001634e46544d60e01b815250816000908161006f9190610135565b50600161007c8282610135565b5050600980546001600160a01b03191633179055506101f3565b634e487b7160e01b600052604160045260246000fd5b600181811c908216806100c057607f821691505b6020821081036100e057634e487b7160e01b600052602260045260246000fd5b50919050565b601f82111561013057806000526020600020601f840160051c8101602085101561010d5750805b601f840160051c820191505b8181101561012d5760008155600101610119565b50505b505050565b81516001600160401b0381111561014e5761014e610096565b6101628161015c84546100ac565b846100e6565b6020601f821160018114610196576000831561017e5750848201515b600019600385901b1c1916600184901b17845561012d565b600084815260208120601f198516915b828110156101c657878501518255602094850194600190920191016101a6565b50848210156101e45786840151600019600387901b60f8161c191681555b50505050600190811b01905550565b611fc0806102026000396000f3fe6080604052600436106101405760003560e01c80638da5cb5b116100b6578063c322579c1161006f578063c322579c1461037f578063c87b56dd1461039f578063d1a88ae5146103bf578063e0391b09146103d4578063e985e9c5146103e9578063ef2d17461461040957600080fd5b80638da5cb5b146102ca5780638e264590146102ea57806395d89b41146103175780639b1225c41461032c578063a22cb4651461033f578063b88d4fde1461035f57600080fd5b806342842e0e1161010857806342842e0e14610216578063629cb2e4146102365780636352211e1461025857806368f1945f1461027857806370a082311461029757806372b3b620146102b757600080fd5b806301ffc9a71461014557806306fdde031461017a578063081812fc1461019c578063095ea7b3146101d457806323b872dd146101f6575b600080fd5b34801561015157600080fd5b506101656101603660046119af565b61041e565b60405190151581526020015b60405180910390f35b34801561018657600080fd5b5061018f610449565b6040516101719190611a1c565b3480156101a857600080fd5b506101bc6101b7366004611a2f565b6104db565b6040516001600160a01b039091168152602001610171565b3480156101e057600080fd5b506101f46101ef366004611a64565b610504565b005b34801561020257600080fd5b506101f4610211366004611a8e565b610513565b34801561022257600080fd5b506101f4610231366004611a8e565b6105a3565b34801561024257600080fd5b5061024b6105c3565b6040516101719190611b0b565b34801561026457600080fd5b506101bc610273366004611a2f565b6107cb565b34801561028457600080fd5b50600a545b604051908152602001610171565b3480156102a357600080fd5b506102896102b2366004611b59565b6107d6565b6102896102c5366004611c04565b61081e565b3480156102d657600080fd5b506009546101bc906001600160a01b031681565b3480156102f657600080fd5b5061030a610305366004611a2f565b61099b565b6040516101719190611c5d565b34801561032357600080fd5b5061018f610a05565b6101f461033a366004611a2f565b610a14565b34801561034b57600080fd5b506101f461035a366004611c6b565b610c25565b34801561036b57600080fd5b506101f461037a366004611ca7565b610c30565b34801561038b57600080fd5b506101f461039a366004611a2f565b610c48565b3480156103ab57600080fd5b5061018f6103ba366004611a2f565b610cb3565b3480156103cb57600080fd5b5061030a610dc4565b3480156103e057600080fd5b5061024b610e31565b3480156103f557600080fd5b50610165610404366004611d23565b610fb5565b34801561041557600080fd5b50600754610289565b60006001600160e01b03198216632483248360e11b1480610443575061044382610fe3565b92915050565b60606000805461045890611d56565b80601f016020809104026020016040519081016040528092919081815260200182805461048490611d56565b80156104d15780601f106104a6576101008083540402835291602001916104d1565b820191906000526020600020905b8154815290600101906020018083116104b457829003601f168201915b5050505050905090565b60006104e682611033565b506000828152600460205260409020546001600160a01b0316610443565b61050f82823361106c565b5050565b6001600160a01b03821661054257604051633250574960e11b8152600060048201526024015b60405180910390fd5b600061054f838333611079565b9050836001600160a01b0316816001600160a01b03161461059d576040516364283d7b60e01b81526001600160a01b0380861660048301526024820184905282166044820152606401610539565b50505050565b6105be83838360405180602001604052806000815250610c30565b505050565b6007546060906000805b828110156106535733600b60006105e5846001611da6565b81526020810191909152604001600020600101546001600160a01b03161480610638575033600b6000610619846001611da6565b81526020810191909152604001600020600201546001600160a01b0316145b1561064b57610648600183611da6565b91505b6001016105cd565b5060008167ffffffffffffffff81111561066f5761066f611b74565b6040519080825280602002602001820160405280156106a857816020015b610695611968565b81526020019060019003908161068d5790505b5090506000805b848110156107c15733600b60006106c7846001611da6565b81526020810191909152604001600020600101546001600160a01b0316148061071a575033600b60006106fb846001611da6565b81526020810191909152604001600020600201546001600160a01b0316145b156107b957600b600061072e836001611da6565b81526020808201929092526040908101600020815160a0810183528154815260018201546001600160a01b0390811694820194909452600282015490931691830191909152600381015460608301526004015460ff1615156080820152835184908490811061079f5761079f611db9565b602002602001018190525081806107b590611dcf565b9250505b6001016106af565b5090949350505050565b600061044382611033565b60006001600160a01b038216610802576040516322718ad960e21b815260006004820152602401610539565b506001600160a01b031660009081526003602052604090205490565b6000600a543410156108725760405162461bcd60e51b815260206004820152601860248201527f496e73756666696369656e74206c697374696e672066656500000000000000006044820152606401610539565b600082116108bb5760405162461bcd60e51b81526020600482015260166024820152755072696365206d75737420626520706f73697469766560501b6044820152606401610539565b6001600760008282546108ce9190611da6565b90915550506007546108e03382611172565b6108ea818561118c565b6108f481846111dc565b600a5434111561099457600a5460009033906109109034611de8565b604051600081818185875af1925050503d806000811461094c576040519150601f19603f3d011682016040523d82523d6000602084013e610951565b606091505b50509050806109925760405162461bcd60e51b815260206004820152600d60248201526c1499599d5b990819985a5b1959609a1b6044820152606401610539565b505b9392505050565b6109a3611968565b506000908152600b6020908152604091829020825160a0810184528154815260018201546001600160a01b03908116938201939093526002820154909216928201929092526003820154606082015260049091015460ff161515608082015290565b60606001805461045890611d56565b6000818152600b6020526040902060038101546002909101546001600160a01b0316348214610a855760405162461bcd60e51b815260206004820152601e60248201527f506c65617365207375626d6974207468652061736b696e6720707269636500006044820152606401610539565b6000838152600b6020526040812060048101805460ff1916905560020180546001600160a01b031916331790556008805460019290610ac5908490611da6565b90915550610ad690503033856112c6565b600954600a546040516000926001600160a01b031691908381818185875af1925050503d8060008114610b25576040519150601f19603f3d011682016040523d82523d6000602084013e610b2a565b606091505b5050905080610b7b5760405162461bcd60e51b815260206004820152601860248201527f5472616e7366657220746f206f776e6572206661696c656400000000000000006044820152606401610539565b6000826001600160a01b03163460405160006040518083038185875af1925050503d8060008114610bc8576040519150601f19603f3d011682016040523d82523d6000602084013e610bcd565b606091505b5050905080610c1e5760405162461bcd60e51b815260206004820152601960248201527f5472616e7366657220746f2073656c6c6572206661696c6564000000000000006044820152606401610539565b5050505050565b61050f338383611376565b610c3b848484610513565b61059d3385858585611415565b6009546001600160a01b03163314610cae5760405162461bcd60e51b815260206004820152602360248201527f4f6e6c79206f776e65722063616e20757064617465206c697374696e6720707260448201526269636560e81b6064820152608401610539565b600a55565b6060610cbe82611033565b5060008281526006602052604081208054610cd890611d56565b80601f0160208091040260200160405190810160405280929190818152602001828054610d0490611d56565b8015610d515780601f10610d2657610100808354040283529160200191610d51565b820191906000526020600020905b815481529060010190602001808311610d3457829003601f168201915b505050505090506000610d6f60408051602081019091526000815290565b90508051600003610d81575092915050565b815115610db3578082604051602001610d9b929190611dfb565b60405160208183030381529060405292505050919050565b610dbc8461153f565b949350505050565b610dcc611968565b506007546000908152600b6020908152604091829020825160a0810184528154815260018201546001600160a01b03908116938201939093526002820154909216928201929092526003820154606082015260049091015460ff161515608082015290565b6007546060906000805b82811015610e8457600b6000610e52836001611da6565b815260208101919091526040016000206004015460ff1615610e7c5781610e7881611dcf565b9250505b600101610e3b565b5060008167ffffffffffffffff811115610ea057610ea0611b74565b604051908082528060200260200182016040528015610ed957816020015b610ec6611968565b815260200190600190039081610ebe5790505b5090506000805b848110156107c157600b6000610ef7836001611da6565b815260208101919091526040016000206004015460ff1615610fad57600b6000610f22836001611da6565b81526020808201929092526040908101600020815160a0810183528154815260018201546001600160a01b0390811694820194909452600282015490931691830191909152600381015460608301526004015460ff16151560808201528351849084908110610f9357610f93611db9565b60200260200101819052508180610fa990611dcf565b9250505b600101610ee0565b6001600160a01b03918216600090815260056020908152604080832093909416825291909152205460ff1690565b60006001600160e01b031982166380ac58cd60e01b148061101457506001600160e01b03198216635b5e139f60e01b145b8061044357506301ffc9a760e01b6001600160e01b0319831614610443565b6000818152600260205260408120546001600160a01b03168061044357604051637e27328960e01b815260048101849052602401610539565b6105be83838360016115b3565b6000828152600260205260408120546001600160a01b03908116908316156110a6576110a68184866116b9565b6001600160a01b038116156110e4576110c36000856000806115b3565b6001600160a01b038116600090815260036020526040902080546000190190555b6001600160a01b03851615611113576001600160a01b0385166000908152600360205260409020805460010190555b60008481526002602052604080822080546001600160a01b0319166001600160a01b0389811691821790925591518793918516917fddf252ad1be2c89b69c2b068fc378daa952ba7f163c4a11628f55a4df523b3ef91a4949350505050565b61050f82826040518060200160405280600081525061171d565b60008281526006602052604090206111a48282611e71565b506040518281527ff8e1a15aba9398e019f0b49df1a4fde98ee17ae345cb5f6b5e2c27f5033e8ce79060200160405180910390a15050565b6040805160a081018252838152306020808301828152338486018181526060860188815260016080880181815260008c8152600b9097529890952096518755925193860180546001600160a01b039586166001600160a01b03199182161790915590516002870180549190951691161790925551600384015592516004909201805492151560ff19909316929092179091556112799190846112c6565b604080513081523360208201529081018290526001606082015282907f9339409317fd01fabff48b703019016f49159bacc801ae872d2ca637d226e4c09060800160405180910390a25050565b6001600160a01b0382166112f057604051633250574960e11b815260006004820152602401610539565b60006112fe83836000611079565b90506001600160a01b03811661132a57604051637e27328960e01b815260048101839052602401610539565b836001600160a01b0316816001600160a01b03161461059d576040516364283d7b60e01b81526001600160a01b0380861660048301526024820184905282166044820152606401610539565b6001600160a01b0382166113a857604051630b61174360e31b81526001600160a01b0383166004820152602401610539565b6001600160a01b03838116600081815260056020908152604080832094871680845294825291829020805460ff191686151590811790915591519182527f17307eab39ab6107e8899845ad3d59bd9653f200f220920489ca2b5937696c31910160405180910390a3505050565b6001600160a01b0383163b15610c1e57604051630a85bd0160e11b81526001600160a01b0384169063150b7a0290611457908890889087908790600401611f30565b6020604051808303816000875af1925050508015611492575060408051601f3d908101601f1916820190925261148f91810190611f6d565b60015b6114fb573d8080156114c0576040519150601f19603f3d011682016040523d82523d6000602084013e6114c5565b606091505b5080516000036114f357604051633250574960e11b81526001600160a01b0385166004820152602401610539565b805181602001fd5b6001600160e01b03198116630a85bd0160e11b1461153757604051633250574960e11b81526001600160a01b0385166004820152602401610539565b505050505050565b606061154a82611033565b50600061156260408051602081019091526000815290565b905060008151116115825760405180602001604052806000815250610994565b8061158c84611735565b60405160200161159d929190611dfb565b6040516020818303038152906040529392505050565b80806115c757506001600160a01b03821615155b156116895760006115d784611033565b90506001600160a01b038316158015906116035750826001600160a01b0316816001600160a01b031614155b801561161657506116148184610fb5565b155b1561163f5760405163a9fbf51f60e01b81526001600160a01b0384166004820152602401610539565b81156116875783856001600160a01b0316826001600160a01b03167f8c5be1e5ebec7d5bd14f71427d1e84f3dd0314c0f7b2291e5b200ac8c7c3b92560405160405180910390a45b505b5050600090815260046020526040902080546001600160a01b0319166001600160a01b0392909216919091179055565b6116c48383836117c8565b6105be576001600160a01b0383166116f257604051637e27328960e01b815260048101829052602401610539565b60405163177e802f60e01b81526001600160a01b038316600482015260248101829052604401610539565b611727838361182b565b6105be336000858585611415565b6060600061174283611890565b600101905060008167ffffffffffffffff81111561176257611762611b74565b6040519080825280601f01601f19166020018201604052801561178c576020820181803683370190505b5090508181016020015b600019016f181899199a1a9b1b9c1cb0b131b232b360811b600a86061a8153600a850494508461179657509392505050565b60006001600160a01b03831615801590610dbc5750826001600160a01b0316846001600160a01b0316148061180257506118028484610fb5565b80610dbc5750506000908152600460205260409020546001600160a01b03908116911614919050565b6001600160a01b03821661185557604051633250574960e11b815260006004820152602401610539565b600061186383836000611079565b90506001600160a01b038116156105be576040516339e3563760e11b815260006004820152602401610539565b60008072184f03e93ff9f4daa797ed6e38ed64bf6a1f0160401b83106118cf5772184f03e93ff9f4daa797ed6e38ed64bf6a1f0160401b830492506040015b6d04ee2d6d415b85acef810000000083106118fb576d04ee2d6d415b85acef8100000000830492506020015b662386f26fc10000831061191957662386f26fc10000830492506010015b6305f5e1008310611931576305f5e100830492506008015b612710831061194557612710830492506004015b60648310611957576064830492506002015b600a83106104435760010192915050565b6040805160a08101825260008082526020820181905291810182905260608101829052608081019190915290565b6001600160e01b0319811681146119ac57600080fd5b50565b6000602082840312156119c157600080fd5b813561099481611996565b60005b838110156119e75781810151838201526020016119cf565b50506000910152565b60008151808452611a088160208601602086016119cc565b601f01601f19169290920160200192915050565b60208152600061099460208301846119f0565b600060208284031215611a4157600080fd5b5035919050565b80356001600160a01b0381168114611a5f57600080fd5b919050565b60008060408385031215611a7757600080fd5b611a8083611a48565b946020939093013593505050565b600080600060608486031215611aa357600080fd5b611aac84611a48565b9250611aba60208501611a48565b929592945050506040919091013590565b805182526020808201516001600160a01b039081169184019190915260408083015190911690830152606080820151908301526080908101511515910152565b602080825282518282018190526000918401906040840190835b81811015611b4e57611b38838551611acb565b6020939093019260a09290920191600101611b25565b509095945050505050565b600060208284031215611b6b57600080fd5b61099482611a48565b634e487b7160e01b600052604160045260246000fd5b60008067ffffffffffffffff841115611ba557611ba5611b74565b50604051601f19601f85018116603f0116810181811067ffffffffffffffff82111715611bd457611bd4611b74565b604052838152905080828401851015611bec57600080fd5b83836020830137600060208583010152509392505050565b60008060408385031215611c1757600080fd5b823567ffffffffffffffff811115611c2e57600080fd5b8301601f81018513611c3f57600080fd5b611c4e85823560208401611b8a565b95602094909401359450505050565b60a081016104438284611acb565b60008060408385031215611c7e57600080fd5b611c8783611a48565b915060208301358015158114611c9c57600080fd5b809150509250929050565b60008060008060808587031215611cbd57600080fd5b611cc685611a48565b9350611cd460208601611a48565b925060408501359150606085013567ffffffffffffffff811115611cf757600080fd5b8501601f81018713611d0857600080fd5b611d1787823560208401611b8a565b91505092959194509250565b60008060408385031215611d3657600080fd5b611d3f83611a48565b9150611d4d60208401611a48565b90509250929050565b600181811c90821680611d6a57607f821691505b602082108103611d8a57634e487b7160e01b600052602260045260246000fd5b50919050565b634e487b7160e01b600052601160045260246000fd5b8082018082111561044357610443611d90565b634e487b7160e01b600052603260045260246000fd5b600060018201611de157611de1611d90565b5060010190565b8181038181111561044357610443611d90565b60008351611e0d8184602088016119cc565b835190830190611e218183602088016119cc565b01949350505050565b601f8211156105be57806000526020600020601f840160051c81016020851015611e515750805b601f840160051c820191505b81811015610c1e5760008155600101611e5d565b815167ffffffffffffffff811115611e8b57611e8b611b74565b611e9f81611e998454611d56565b84611e2a565b6020601f821160018114611ed35760008315611ebb5750848201515b600019600385901b1c1916600184901b178455610c1e565b600084815260208120601f198516915b82811015611f035787850151825560209485019460019092019101611ee3565b5084821015611f215786840151600019600387901b60f8161c191681555b50505050600190811b01905550565b6001600160a01b0385811682528416602082015260408101839052608060608201819052600090611f63908301846119f0565b9695505050505050565b600060208284031215611f7f57600080fd5b81516109948161199656fea26469706673582212202c97ab447e99719cb40c8ba7093521cb45f05a45156f9225449b92349ae18c6364736f6c634300081c0033",
  "linkReferences": {},
  "deployedLinkReferences": {}
}