{
  "_format": "hh-sol-artifact-1",
  "contractName": "NFTMarketplace",
  "sourceName": "contracts/NFTMarketplace.sol",
  "abi": [
    {
      "inputs": [],
      "stateMutability": "nonpayable",
      "type": "constructor"
    },
    {
      "inputs": [
        {
          "internalType": "address",
          "name": "sender",
          "type": "address"
        },
        {
          "internalType": "uint256",
          "name": "tokenId",
          "type": "uint256"
        },
        {
          "internalType": "address",
          "name": "owner",
          "type": "address"
        }
      ],
      "name": "ERC721IncorrectOwner",
      "type": "error"
    },
    {
      "inputs": [
        {
          "internalType": "address",
          "name": "operator",
          "type": "address"
        },
        {
          "internalType": "uint256",
          "name": "tokenId",
          "type": "uint256"
        }
      ],
      "name": "ERC721InsufficientApproval",
      "type": "error"
    },
    {
      "inputs": [
        {
          "internalType": "address",
          "name": "approver",
          "type": "address"
        }
      ],
      "name": "ERC721InvalidApprover",
      "type": "error"
    },
    {
      "inputs": [
        {
          "internalType": "address",
          "name": "operator",
          "type": "address"
        }
      ],
      "name": "ERC721InvalidOperator",
      "type": "error"
    },
    {
      "inputs": [
        {
          "internalType": "address",
          "name": "owner",
          "type": "address"
        }
      ],
      "name": "ERC721InvalidOwner",
      "type": "error"
    },
    {
      "inputs": [
        {
          "internalType": "address",
          "name": "receiver",
          "type": "address"
        }
      ],
      "name": "ERC721InvalidReceiver",
      "type": "error"
    },
    {
      "inputs": [
        {
          "internalType": "address",
          "name": "sender",
          "type": "address"
        }
      ],
      "name": "ERC721InvalidSender",
      "type": "error"
    },
    {
      "inputs": [
        {
          "internalType": "uint256",
          "name": "tokenId",
          "type": "uint256"
        }
      ],
      "name": "ERC721NonexistentToken",
      "type": "error"
    },
    {
      "anonymous": false,
      "inputs": [
        {
          "indexed": true,
          "internalType": "address",
          "name": "owner",
          "type": "address"
        },
        {
          "indexed": true,
          "internalType": "address",
          "name": "approved",
          "type": "address"
        },
        {
          "indexed": true,
          "internalType": "uint256",
          "name": "tokenId",
          "type": "uint256"
        }
      ],
      "name": "Approval",
      "type": "event"
    },
    {
      "anonymous": false,
      "inputs": [
        {
          "indexed": true,
          "internalType": "address",
          "name": "owner",
          "type": "address"
        },
        {
          "indexed": true,
          "internalType": "address",
          "name": "operator",
          "type": "address"
        },
        {
          "indexed": false,
          "internalType": "bool",
          "name": "approved",
          "type": "bool"
        }
      ],
      "name": "ApprovalForAll",
      "type": "event"
    },
    {
      "anonymous": false,
      "inputs": [
        {
          "indexed": false,
          "internalType": "uint256",
          "name": "_fromTokenId",
          "type": "uint256"
        },
        {
          "indexed": false,
          "internalType": "uint256",
          "name": "_toTokenId",
          "type": "uint256"
        }
      ],
      "name": "BatchMetadataUpdate",
      "type": "event"
    },
    {
      "anonymous": false,
      "inputs": [
        {
          "indexed": false,
          "internalType": "uint256",
          "name": "_tokenId",
          "type": "uint256"
        }
      ],
      "name": "MetadataUpdate",
      "type": "event"
    },
    {
      "anonymous": false,
      "inputs": [
        {
          "indexed": true,
          "internalType": "uint256",
          "name": "tokenId",
          "type": "uint256"
        },
        {
          "indexed": false,
          "internalType": "address",
          "name": "owner",
          "type": "address"
        },
        {
          "indexed": false,
          "internalType": "address",
          "name": "seller",
          "type": "address"
        },
        {
          "indexed": false,
          "internalType": "uint256",
          "name": "price",
          "type": "uint256"
        },
        {
          "indexed": false,
          "internalType": "bool",
          "name": "currentlyListed",
          "type": "bool"
        }
      ],
      "name": "TokenListedSuccess",
      "type": "event"
    },
    {
      "anonymous": false,
      "inputs": [
        {
          "indexed": true,
          "internalType": "address",
          "name": "from",
          "type": "address"
        },
        {
          "indexed": true,
          "internalType": "address",
          "name": "to",
          "type": "address"
        },
        {
          "indexed": true,
          "internalType": "uint256",
          "name": "tokenId",
          "type": "uint256"
        }
      ],
      "name": "Transfer",
      "type": "event"
    },
    {
      "inputs": [
        {
          "internalType": "address",
          "name": "to",
          "type": "address"
        },
        {
          "internalType": "uint256",
          "name": "tokenId",
          "type": "uint256"
        }
      ],
      "name": "approve",
      "outputs": [],
      "stateMutability": "nonpayable",
      "type": "function"
    },
    {
      "inputs": [
        {
          "internalType": "address",
          "name": "owner",
          "type": "address"
        }
      ],
      "name": "balanceOf",
      "outputs": [
        {
          "internalType": "uint256",
          "name": "",
          "type": "uint256"
        }
      ],
      "stateMutability": "view",
      "type": "function"
    },
    {
      "inputs": [
        {
          "internalType": "string",
          "name": "tokenURI",
          "type": "string"
        },
        {
          "internalType": "uint256",
          "name": "price",
          "type": "uint256"
        }
      ],
      "name": "createToken",
      "outputs": [
        {
          "internalType": "uint256",
          "name": "",
          "type": "uint256"
        }
      ],
      "stateMutability": "payable",
      "type": "function"
    },
    {
      "inputs": [
        {
          "internalType": "uint256",
          "name": "tokenId",
          "type": "uint256"
        }
      ],
      "name": "executeSale",
      "outputs": [],
      "stateMutability": "payable",
      "type": "function"
    },
    {
      "inputs": [],
      "name": "getAllNFTs",
      "outputs": [
        {
          "components": [
            {
              "internalType": "uint256",
              "name": "tokenId",
              "type": "uint256"
            },
            {
              "internalType": "address payable",
              "name": "owner",
              "type": "address"
            },
            {
              "internalType": "address payable",
              "name": "seller",
              "type": "address"
            },
            {
              "internalType": "uint256",
              "name": "price",
              "type": "uint256"
            },
            {
              "internalType": "bool",
              "name": "currentlyListed",
              "type": "bool"
            }
          ],
          "internalType": "struct NFTMarketplace.ListedToken[]",
          "name": "",
          "type": "tuple[]"
        }
      ],
      "stateMutability": "view",
      "type": "function"
    },
    {
      "inputs": [
        {
          "internalType": "uint256",
          "name": "tokenId",
          "type": "uint256"
        }
      ],
      "name": "getApproved",
      "outputs": [
        {
          "internalType": "address",
          "name": "",
          "type": "address"
        }
      ],
      "stateMutability": "view",
      "type": "function"
    },
    {
      "inputs": [],
      "name": "getCurrentToken",
      "outputs": [
        {
          "internalType": "uint256",
          "name": "",
          "type": "uint256"
        }
      ],
      "stateMutability": "view",
      "type": "function"
    },
    {
      "inputs": [],
      "name": "getLatestIdToListedToken",
      "outputs": [
        {
          "components": [
            {
              "internalType": "uint256",
              "name": "tokenId",
              "type": "uint256"
            },
            {
              "internalType": "address payable",
              "name": "owner",
              "type": "address"
            },
            {
              "internalType": "address payable",
              "name": "seller",
              "type": "address"
            },
            {
              "internalType": "uint256",
              "name": "price",
              "type": "uint256"
            },
            {
              "internalType": "bool",
              "name": "currentlyListed",
              "type": "bool"
            }
          ],
          "internalType": "struct NFTMarketplace.ListedToken",
          "name": "",
          "type": "tuple"
        }
      ],
      "stateMutability": "view",
      "type": "function"
    },
    {
      "inputs": [],
      "name": "getListPrice",
      "outputs": [
        {
          "internalType": "uint256",
          "name": "",
          "type": "uint256"
        }
      ],
      "stateMutability": "view",
      "type": "function"
    },
    {
      "inputs": [
        {
          "internalType": "uint256",
          "name": "tokenId",
          "type": "uint256"
        }
      ],
      "name": "getListedTokenForId",
      "outputs": [
        {
          "components": [
            {
              "internalType": "uint256",
              "name": "tokenId",
              "type": "uint256"
            },
            {
              "internalType": "address payable",
              "name": "owner",
              "type": "address"
            },
            {
              "internalType": "address payable",
              "name": "seller",
              "type": "address"
            },
            {
              "internalType": "uint256",
              "name": "price",
              "type": "uint256"
            },
            {
              "internalType": "bool",
              "name": "currentlyListed",
              "type": "bool"
            }
          ],
          "internalType": "struct NFTMarketplace.ListedToken",
          "name": "",
          "type": "tuple"
        }
      ],
      "stateMutability": "view",
      "type": "function"
    },
    {
      "inputs": [],
      "name": "getMyNFTs",
      "outputs": [
        {
          "components": [
            {
              "internalType": "uint256",
              "name": "tokenId",
              "type": "uint256"
            },
            {
              "internalType": "address payable",
              "name": "owner",
              "type": "address"
            },
            {
              "internalType": "address payable",
              "name": "seller",
              "type": "address"
            },
            {
              "internalType": "uint256",
              "name": "price",
              "type": "uint256"
            },
            {
              "internalType": "bool",
              "name": "currentlyListed",
              "type": "bool"
            }
          ],
          "internalType": "struct NFTMarketplace.ListedToken[]",
          "name": "",
          "type": "tuple[]"
        }
      ],
      "stateMutability": "view",
      "type": "function"
    },
    {
      "inputs": [
        {
          "internalType": "address",
          "name": "owner",
          "type": "address"
        },
        {
          "internalType": "address",
          "name": "operator",
          "type": "address"
        }
      ],
      "name": "isApprovedForAll",
      "outputs": [
        {
          "internalType": "bool",
          "name": "",
          "type": "bool"
        }
      ],
      "stateMutability": "view",
      "type": "function"
    },
    {
      "inputs": [],
      "name": "name",
      "outputs": [
        {
          "internalType": "string",
          "name": "",
          "type": "string"
        }
      ],
      "stateMutability": "view",
      "type": "function"
    },
    {
      "inputs": [],
      "name": "owner",
      "outputs": [
        {
          "internalType": "address payable",
          "name": "",
          "type": "address"
        }
      ],
      "stateMutability": "view",
      "type": "function"
    },
    {
      "inputs": [
        {
          "internalType": "uint256",
          "name": "tokenId",
          "type": "uint256"
        }
      ],
      "name": "ownerOf",
      "outputs": [
        {
          "internalType": "address",
          "name": "",
          "type": "address"
        }
      ],
      "stateMutability": "view",
      "type": "function"
    },
    {
      "inputs": [
        {
          "internalType": "address",
          "name": "from",
          "type": "address"
        },
        {
          "internalType": "address",
          "name": "to",
          "type": "address"
        },
        {
          "internalType": "uint256",
          "name": "tokenId",
          "type": "uint256"
        }
      ],
      "name": "safeTransferFrom",
      "outputs": [],
      "stateMutability": "nonpayable",
      "type": "function"
    },
    {
      "inputs": [
        {
          "internalType": "address",
          "name": "from",
          "type": "address"
        },
        {
          "internalType": "address",
          "name": "to",
          "type": "address"
        },
        {
          "internalType": "uint256",
          "name": "tokenId",
          "type": "uint256"
        },
        {
          "internalType": "bytes",
          "name": "data",
          "type": "bytes"
        }
      ],
      "name": "safeTransferFrom",
      "outputs": [],
      "stateMutability": "nonpayable",
      "type": "function"
    },
    {
      "inputs": [
        {
          "internalType": "address",
          "name": "operator",
          "type": "address"
        },
        {
          "internalType": "bool",
          "name": "approved",
          "type": "bool"
        }
      ],
      "name": "setApprovalForAll",
      "outputs": [],
      "stateMutability": "nonpayable",
      "type": "function"
    },
    {
      "inputs": [
        {
          "internalType": "bytes4",
          "name": "interfaceId",
          "type": "bytes4"
        }
      ],
      "name": "supportsInterface",
      "outputs": [
        {
          "internalType": "bool",
          "name": "",
          "type": "bool"
        }
      ],
      "stateMutability": "view",
      "type": "function"
    },
    {
      "inputs": [],
      "name": "symbol",
      "outputs": [
        {
          "internalType": "string",
          "name": "",
          "type": "string"
        }
      ],
      "stateMutability": "view",
      "type": "function"
    },
    {
      "inputs": [
        {
          "internalType": "uint256",
          "name": "tokenId",
          "type": "uint256"
        }
      ],
      "name": "tokenURI",
      "outputs": [
        {
          "internalType": "string",
          "name": "",
          "type": "string"
        }
      ],
      "stateMutability": "view",
      "type": "function"
    },
    {
      "inputs": [
        {
          "internalType": "address",
          "name": "from",
          "type": "address"
        },
        {
          "internalType": "address",
          "name": "to",
          "type": "address"
        },
        {
          "internalType": "uint256",
          "name": "tokenId",
          "type": "uint256"
        }
      ],
      "name": "transferFrom",
      "outputs": [],
      "stateMutability": "nonpayable",
      "type": "function"
    },
    {
      "inputs": [
        {
          "internalType": "uint256",
          "name": "_listPrice",
          "type": "uint256"
        }
      ],
      "name": "updateListPrice",
      "outputs": [],
      "stateMutability": "payable",
      "type": "function"
    }
  ],
  "bytecode": "0x6080604052662386f26fc10000600a5534801561001b57600080fd5b506040518060400160405280600e81526020017f4e46544d61726b6574706c6163650000000000000000000000000000000000008152506040518060400160405280600481526020017f4e46544d0000000000000000000000000000000000000000000000000000000081525081600090816100979190610340565b5080600190816100a79190610340565b50505033600960006101000a81548173ffffffffffffffffffffffffffffffffffffffff021916908373ffffffffffffffffffffffffffffffffffffffff160217905550610412565b600081519050919050565b7f4e487b7100000000000000000000000000000000000000000000000000000000600052604160045260246000fd5b7f4e487b7100000000000000000000000000000000000000000000000000000000600052602260045260246000fd5b6000600282049050600182168061017157607f821691505b6020821081036101845761018361012a565b5b50919050565b60008190508160005260206000209050919050565b60006020601f8301049050919050565b600082821b905092915050565b6000600883026101ec7fffffffffffffffffffffffffffffffffffffffffffffffffffffffffffffffff826101af565b6101f686836101af565b95508019841693508086168417925050509392505050565b6000819050919050565b6000819050919050565b600061023d6102386102338461020e565b610218565b61020e565b9050919050565b6000819050919050565b61025783610222565b61026b61026382610244565b8484546101bc565b825550505050565b600090565b610280610273565b61028b81848461024e565b505050565b5b818110156102af576102a4600082610278565b600181019050610291565b5050565b601f8211156102f4576102c58161018a565b6102ce8461019f565b810160208510156102dd578190505b6102f16102e98561019f565b830182610290565b50505b505050565b600082821c905092915050565b6000610317600019846008026102f9565b1980831691505092915050565b60006103308383610306565b9150826002028217905092915050565b610349826100f0565b67ffffffffffffffff811115610362576103616100fb565b5b61036c8254610159565b6103778282856102b3565b600060209050601f8311600181146103aa5760008415610398578287015190505b6103a28582610324565b86555061040a565b601f1984166103b88661018a565b60005b828110156103e0578489015182556001820191506020850194506020810190506103bb565b868310156103fd57848901516103f9601f891682610306565b8355505b6001600288020188555050505b505050505050565b6139a0806104216000396000f3fe6080604052600436106101405760003560e01c80638da5cb5b116100b6578063c322579c1161006f578063c322579c14610466578063c87b56dd14610482578063d1a88ae5146104bf578063e0391b09146104ea578063e985e9c514610515578063ef2d17461461055257610140565b80638da5cb5b146103655780638e2645901461039057806395d89b41146103cd5780639b1225c4146103f8578063a22cb46514610414578063b88d4fde1461043d57610140565b806342842e0e1161010857806342842e0e1461023c578063629cb2e4146102655780636352211e1461029057806368f1945f146102cd57806370a08231146102f857806372b3b6201461033557610140565b806301ffc9a71461014557806306fdde0314610182578063081812fc146101ad578063095ea7b3146101ea57806323b872dd14610213575b600080fd5b34801561015157600080fd5b5061016c6004803603810190610167919061292b565b61057d565b6040516101799190612973565b60405180910390f35b34801561018e57600080fd5b506101976105de565b6040516101a49190612a1e565b60405180910390f35b3480156101b957600080fd5b506101d460048036038101906101cf9190612a76565b610670565b6040516101e19190612ae4565b60405180910390f35b3480156101f657600080fd5b50610211600480360381019061020c9190612b2b565b61068c565b005b34801561021f57600080fd5b5061023a60048036038101906102359190612b6b565b6106a2565b005b34801561024857600080fd5b50610263600480360381019061025e9190612b6b565b6107a4565b005b34801561027157600080fd5b5061027a6107c4565b6040516102879190612d14565b60405180910390f35b34801561029c57600080fd5b506102b760048036038101906102b29190612a76565b610b92565b6040516102c49190612ae4565b60405180910390f35b3480156102d957600080fd5b506102e2610ba4565b6040516102ef9190612d45565b60405180910390f35b34801561030457600080fd5b5061031f600480360381019061031a9190612d60565b610bae565b60405161032c9190612d45565b60405180910390f35b61034f600480360381019061034a9190612ec2565b610c68565b60405161035c9190612d45565b60405180910390f35b34801561037157600080fd5b5061037a610cb3565b6040516103879190612f2d565b60405180910390f35b34801561039c57600080fd5b506103b760048036038101906103b29190612a76565b610cd9565b6040516103c49190612fb0565b60405180910390f35b3480156103d957600080fd5b506103e2610de1565b6040516103ef9190612a1e565b60405180910390f35b610412600480360381019061040d9190612a76565b610e73565b005b34801561042057600080fd5b5061043b60048036038101906104369190612ff7565b611075565b005b34801561044957600080fd5b50610464600480360381019061045f91906130d8565b61108b565b005b610480600480360381019061047b9190612a76565b6110b0565b005b34801561048e57600080fd5b506104a960048036038101906104a49190612a76565b61114a565b6040516104b69190612a1e565b60405180910390f35b3480156104cb57600080fd5b506104d461125d565b6040516104e19190612fb0565b60405180910390f35b3480156104f657600080fd5b506104ff61136b565b60405161050c9190612d14565b60405180910390f35b34801561052157600080fd5b5061053c6004803603810190610537919061315b565b611530565b6040516105499190612973565b60405180910390f35b34801561055e57600080fd5b506105676115c4565b6040516105749190612d45565b60405180910390f35b6000634906490660e01b7bffffffffffffffffffffffffffffffffffffffffffffffffffffffff1916827bffffffffffffffffffffffffffffffffffffffffffffffffffffffff191614806105d757506105d6826115ce565b5b9050919050565b6060600080546105ed906131ca565b80601f0160208091040260200160405190810160405280929190818152602001828054610619906131ca565b80156106665780601f1061063b57610100808354040283529160200191610666565b820191906000526020600020905b81548152906001019060200180831161064957829003601f168201915b5050505050905090565b600061067b826116b0565b5061068582611738565b9050919050565b61069e8282610699611775565b61177d565b5050565b600073ffffffffffffffffffffffffffffffffffffffff168273ffffffffffffffffffffffffffffffffffffffff16036107145760006040517f64a0ae9200000000000000000000000000000000000000000000000000000000815260040161070b9190612ae4565b60405180910390fd5b60006107288383610723611775565b61178f565b90508373ffffffffffffffffffffffffffffffffffffffff168173ffffffffffffffffffffffffffffffffffffffff161461079e578382826040517f64283d7b000000000000000000000000000000000000000000000000000000008152600401610795939291906131fb565b60405180910390fd5b50505050565b6107bf8383836040518060200160405280600081525061108b565b505050565b606060006007549050600080600080600090505b848110156108eb573373ffffffffffffffffffffffffffffffffffffffff16600b60006001846108089190613261565b815260200190815260200160002060010160009054906101000a900473ffffffffffffffffffffffffffffffffffffffff1673ffffffffffffffffffffffffffffffffffffffff1614806108c957503373ffffffffffffffffffffffffffffffffffffffff16600b600060018461087f9190613261565b815260200190815260200160002060020160009054906101000a900473ffffffffffffffffffffffffffffffffffffffff1673ffffffffffffffffffffffffffffffffffffffff16145b156108de576001846108db9190613261565b93505b80806001019150506107d8565b5060008367ffffffffffffffff81111561090857610907612d97565b5b60405190808252806020026020018201604052801561094157816020015b61092e612862565b8152602001906001900390816109265790505b50905060005b85811015610b86573373ffffffffffffffffffffffffffffffffffffffff16600b60006001846109779190613261565b815260200190815260200160002060010160009054906101000a900473ffffffffffffffffffffffffffffffffffffffff1673ffffffffffffffffffffffffffffffffffffffff161480610a3857503373ffffffffffffffffffffffffffffffffffffffff16600b60006001846109ee9190613261565b815260200190815260200160002060020160009054906101000a900473ffffffffffffffffffffffffffffffffffffffff1673ffffffffffffffffffffffffffffffffffffffff16145b15610b7957600181610a4a9190613261565b92506000600b60008581526020019081526020016000209050806040518060a0016040529081600082015481526020016001820160009054906101000a900473ffffffffffffffffffffffffffffffffffffffff1673ffffffffffffffffffffffffffffffffffffffff1673ffffffffffffffffffffffffffffffffffffffff1681526020016002820160009054906101000a900473ffffffffffffffffffffffffffffffffffffffff1673ffffffffffffffffffffffffffffffffffffffff1673ffffffffffffffffffffffffffffffffffffffff168152602001600382015481526020016004820160009054906101000a900460ff161515151581525050838681518110610b5d57610b5c613295565b5b6020026020010181905250600185610b759190613261565b9450505b8080600101915050610947565b50809550505050505090565b6000610b9d826116b0565b9050919050565b6000600a54905090565b60008073ffffffffffffffffffffffffffffffffffffffff168273ffffffffffffffffffffffffffffffffffffffff1603610c215760006040517f89c62b64000000000000000000000000000000000000000000000000000000008152600401610c189190612ae4565b60405180910390fd5b600360008373ffffffffffffffffffffffffffffffffffffffff1673ffffffffffffffffffffffffffffffffffffffff168152602001908152602001600020549050919050565b6000600160076000828254610c7d9190613261565b9250508190555060006007549050610c9533826119a9565b610c9f81856119c7565b610ca98184611a23565b8091505092915050565b600960009054906101000a900473ffffffffffffffffffffffffffffffffffffffff1681565b610ce1612862565b600b60008381526020019081526020016000206040518060a0016040529081600082015481526020016001820160009054906101000a900473ffffffffffffffffffffffffffffffffffffffff1673ffffffffffffffffffffffffffffffffffffffff1673ffffffffffffffffffffffffffffffffffffffff1681526020016002820160009054906101000a900473ffffffffffffffffffffffffffffffffffffffff1673ffffffffffffffffffffffffffffffffffffffff1673ffffffffffffffffffffffffffffffffffffffff168152602001600382015481526020016004820160009054906101000a900460ff1615151515815250509050919050565b606060018054610df0906131ca565b80601f0160208091040260200160405190810160405280929190818152602001828054610e1c906131ca565b8015610e695780601f10610e3e57610100808354040283529160200191610e69565b820191906000526020600020905b815481529060010190602001808311610e4c57829003601f168201915b5050505050905090565b6000600b60008381526020019081526020016000206003015490506000600b600084815260200190815260200160002060020160009054906101000a900473ffffffffffffffffffffffffffffffffffffffff169050813414610f0b576040517f08c379a0000000000000000000000000000000000000000000000000000000008152600401610f0290613336565b60405180910390fd5b6001600b600085815260200190815260200160002060040160006101000a81548160ff02191690831515021790555033600b600085815260200190815260200160002060020160006101000a81548173ffffffffffffffffffffffffffffffffffffffff021916908373ffffffffffffffffffffffffffffffffffffffff160217905550600160086000828254610fa29190613261565b92505081905550610fb4303385611c26565b610fbe308461068c565b600960009054906101000a900473ffffffffffffffffffffffffffffffffffffffff1673ffffffffffffffffffffffffffffffffffffffff166108fc600a549081150290604051600060405180830381858888f19350505050158015611028573d6000803e3d6000fd5b508073ffffffffffffffffffffffffffffffffffffffff166108fc349081150290604051600060405180830381858888f1935050505015801561106f573d6000803e3d6000fd5b50505050565b611087611080611775565b8383611d93565b5050565b6110968484846106a2565b6110aa6110a1611775565b85858585611f02565b50505050565b3373ffffffffffffffffffffffffffffffffffffffff16600960009054906101000a900473ffffffffffffffffffffffffffffffffffffffff1673ffffffffffffffffffffffffffffffffffffffff1614611140576040517f08c379a0000000000000000000000000000000000000000000000000000000008152600401611137906133c8565b60405180910390fd5b80600a8190555050565b6060611155826116b0565b506000600660008481526020019081526020016000208054611176906131ca565b80601f01602080910402602001604051908101604052809291908181526020018280546111a2906131ca565b80156111ef5780601f106111c4576101008083540402835291602001916111ef565b820191906000526020600020905b8154815290600101906020018083116111d257829003601f168201915b5050505050905060006112006120b3565b90506000815103611215578192505050611258565b60008251111561124a578082604051602001611232929190613424565b60405160208183030381529060405292505050611258565b611253846120ca565b925050505b919050565b611265612862565b60006007549050600b60008281526020019081526020016000206040518060a0016040529081600082015481526020016001820160009054906101000a900473ffffffffffffffffffffffffffffffffffffffff1673ffffffffffffffffffffffffffffffffffffffff1673ffffffffffffffffffffffffffffffffffffffff1681526020016002820160009054906101000a900473ffffffffffffffffffffffffffffffffffffffff1673ffffffffffffffffffffffffffffffffffffffff1673ffffffffffffffffffffffffffffffffffffffff168152602001600382015481526020016004820160009054906101000a900460ff16151515158152505091505090565b60606000600754905060008167ffffffffffffffff8111156113905761138f612d97565b5b6040519080825280602002602001820160405280156113c957816020015b6113b6612862565b8152602001906001900390816113ae5790505b50905060008080600090505b84811015611525576001816113ea9190613261565b91506000600b60008481526020019081526020016000209050806040518060a0016040529081600082015481526020016001820160009054906101000a900473ffffffffffffffffffffffffffffffffffffffff1673ffffffffffffffffffffffffffffffffffffffff1673ffffffffffffffffffffffffffffffffffffffff1681526020016002820160009054906101000a900473ffffffffffffffffffffffffffffffffffffffff1673ffffffffffffffffffffffffffffffffffffffff1673ffffffffffffffffffffffffffffffffffffffff168152602001600382015481526020016004820160009054906101000a900460ff1615151515815250508585815181106114fd576114fc613295565b5b60200260200101819052506001846115159190613261565b93505080806001019150506113d5565b508294505050505090565b6000600560008473ffffffffffffffffffffffffffffffffffffffff1673ffffffffffffffffffffffffffffffffffffffff16815260200190815260200160002060008373ffffffffffffffffffffffffffffffffffffffff1673ffffffffffffffffffffffffffffffffffffffff16815260200190815260200160002060009054906101000a900460ff16905092915050565b6000600754905090565b60007f80ac58cd000000000000000000000000000000000000000000000000000000007bffffffffffffffffffffffffffffffffffffffffffffffffffffffff1916827bffffffffffffffffffffffffffffffffffffffffffffffffffffffff1916148061169957507f5b5e139f000000000000000000000000000000000000000000000000000000007bffffffffffffffffffffffffffffffffffffffffffffffffffffffff1916827bffffffffffffffffffffffffffffffffffffffffffffffffffffffff1916145b806116a957506116a882612133565b5b9050919050565b6000806116bc8361219d565b9050600073ffffffffffffffffffffffffffffffffffffffff168173ffffffffffffffffffffffffffffffffffffffff160361172f57826040517f7e2732890000000000000000000000000000000000000000000000000000000081526004016117269190612d45565b60405180910390fd5b80915050919050565b60006004600083815260200190815260200160002060009054906101000a900473ffffffffffffffffffffffffffffffffffffffff169050919050565b600033905090565b61178a83838360016121da565b505050565b60008061179b8461219d565b9050600073ffffffffffffffffffffffffffffffffffffffff168373ffffffffffffffffffffffffffffffffffffffff16146117dd576117dc81848661239f565b5b600073ffffffffffffffffffffffffffffffffffffffff168173ffffffffffffffffffffffffffffffffffffffff161461186e5761181f6000856000806121da565b6001600360008373ffffffffffffffffffffffffffffffffffffffff1673ffffffffffffffffffffffffffffffffffffffff168152602001908152602001600020600082825403925050819055505b600073ffffffffffffffffffffffffffffffffffffffff168573ffffffffffffffffffffffffffffffffffffffff16146118f1576001600360008773ffffffffffffffffffffffffffffffffffffffff1673ffffffffffffffffffffffffffffffffffffffff168152602001908152602001600020600082825401925050819055505b846002600086815260200190815260200160002060006101000a81548173ffffffffffffffffffffffffffffffffffffffff021916908373ffffffffffffffffffffffffffffffffffffffff160217905550838573ffffffffffffffffffffffffffffffffffffffff168273ffffffffffffffffffffffffffffffffffffffff167fddf252ad1be2c89b69c2b068fc378daa952ba7f163c4a11628f55a4df523b3ef60405160405180910390a4809150509392505050565b6119c3828260405180602001604052806000815250612463565b5050565b806006600084815260200190815260200160002090816119e791906135f4565b507ff8e1a15aba9398e019f0b49df1a4fde98ee17ae345cb5f6b5e2c27f5033e8ce782604051611a179190612d45565b60405180910390a15050565b600a543414611a67576040517f08c379a0000000000000000000000000000000000000000000000000000000008152600401611a5e90613738565b60405180910390fd5b60008111611aaa576040517f08c379a0000000000000000000000000000000000000000000000000000000008152600401611aa1906137ca565b60405180910390fd5b6040518060a001604052808381526020013073ffffffffffffffffffffffffffffffffffffffff1681526020013373ffffffffffffffffffffffffffffffffffffffff16815260200182815260200160011515815250600b60008481526020019081526020016000206000820151816000015560208201518160010160006101000a81548173ffffffffffffffffffffffffffffffffffffffff021916908373ffffffffffffffffffffffffffffffffffffffff16021790555060408201518160020160006101000a81548173ffffffffffffffffffffffffffffffffffffffff021916908373ffffffffffffffffffffffffffffffffffffffff1602179055506060820151816003015560808201518160040160006101000a81548160ff021916908315150217905550905050611be3333084611c26565b817f9339409317fd01fabff48b703019016f49159bacc801ae872d2ca637d226e4c03033846001604051611c1a94939291906137ea565b60405180910390a25050565b600073ffffffffffffffffffffffffffffffffffffffff168273ffffffffffffffffffffffffffffffffffffffff1603611c985760006040517f64a0ae92000000000000000000000000000000000000000000000000000000008152600401611c8f9190612ae4565b60405180910390fd5b6000611ca68383600061178f565b9050600073ffffffffffffffffffffffffffffffffffffffff168173ffffffffffffffffffffffffffffffffffffffff1603611d1957816040517f7e273289000000000000000000000000000000000000000000000000000000008152600401611d109190612d45565b60405180910390fd5b8373ffffffffffffffffffffffffffffffffffffffff168173ffffffffffffffffffffffffffffffffffffffff1614611d8d578382826040517f64283d7b000000000000000000000000000000000000000000000000000000008152600401611d84939291906131fb565b60405180910390fd5b50505050565b600073ffffffffffffffffffffffffffffffffffffffff168273ffffffffffffffffffffffffffffffffffffffff1603611e0457816040517f5b08ba18000000000000000000000000000000000000000000000000000000008152600401611dfb9190612ae4565b60405180910390fd5b80600560008573ffffffffffffffffffffffffffffffffffffffff1673ffffffffffffffffffffffffffffffffffffffff16815260200190815260200160002060008473ffffffffffffffffffffffffffffffffffffffff1673ffffffffffffffffffffffffffffffffffffffff16815260200190815260200160002060006101000a81548160ff0219169083151502179055508173ffffffffffffffffffffffffffffffffffffffff168373ffffffffffffffffffffffffffffffffffffffff167f17307eab39ab6107e8899845ad3d59bd9653f200f220920489ca2b5937696c3183604051611ef59190612973565b60405180910390a3505050565b60008373ffffffffffffffffffffffffffffffffffffffff163b11156120ac578273ffffffffffffffffffffffffffffffffffffffff1663150b7a02868685856040518563ffffffff1660e01b8152600401611f619493929190613884565b6020604051808303816000875af1925050508015611f9d57506040513d601f19601f82011682018060405250810190611f9a91906138e5565b60015b612021573d8060008114611fcd576040519150601f19603f3d011682016040523d82523d6000602084013e611fd2565b606091505b50600081510361201957836040517f64a0ae920000000000000000000000000000000000000000000000000000000081526004016120109190612ae4565b60405180910390fd5b805181602001fd5b63150b7a0260e01b7bffffffffffffffffffffffffffffffffffffffffffffffffffffffff1916817bffffffffffffffffffffffffffffffffffffffffffffffffffffffff1916146120aa57836040517f64a0ae920000000000000000000000000000000000000000000000000000000081526004016120a19190612ae4565b60405180910390fd5b505b5050505050565b606060405180602001604052806000815250905090565b60606120d5826116b0565b5060006120e06120b3565b90506000815111612100576040518060200160405280600081525061212b565b8061210a84612487565b60405160200161211b929190613424565b6040516020818303038152906040525b915050919050565b60007f01ffc9a7000000000000000000000000000000000000000000000000000000007bffffffffffffffffffffffffffffffffffffffffffffffffffffffff1916827bffffffffffffffffffffffffffffffffffffffffffffffffffffffff1916149050919050565b60006002600083815260200190815260200160002060009054906101000a900473ffffffffffffffffffffffffffffffffffffffff169050919050565b80806122135750600073ffffffffffffffffffffffffffffffffffffffff168273ffffffffffffffffffffffffffffffffffffffff1614155b15612347576000612223846116b0565b9050600073ffffffffffffffffffffffffffffffffffffffff168373ffffffffffffffffffffffffffffffffffffffff161415801561228e57508273ffffffffffffffffffffffffffffffffffffffff168173ffffffffffffffffffffffffffffffffffffffff1614155b80156122a1575061229f8184611530565b155b156122e357826040517fa9fbf51f0000000000000000000000000000000000000000000000000000000081526004016122da9190612ae4565b60405180910390fd5b811561234557838573ffffffffffffffffffffffffffffffffffffffff168273ffffffffffffffffffffffffffffffffffffffff167f8c5be1e5ebec7d5bd14f71427d1e84f3dd0314c0f7b2291e5b200ac8c7c3b92560405160405180910390a45b505b836004600085815260200190815260200160002060006101000a81548173ffffffffffffffffffffffffffffffffffffffff021916908373ffffffffffffffffffffffffffffffffffffffff16021790555050505050565b6123aa838383612555565b61245e57600073ffffffffffffffffffffffffffffffffffffffff168373ffffffffffffffffffffffffffffffffffffffff160361241f57806040517f7e2732890000000000000000000000000000000000000000000000000000000081526004016124169190612d45565b60405180910390fd5b81816040517f177e802f000000000000000000000000000000000000000000000000000000008152600401612455929190613912565b60405180910390fd5b505050565b61246d8383612616565b612482612478611775565b6000858585611f02565b505050565b6060600060016124968461270f565b01905060008167ffffffffffffffff8111156124b5576124b4612d97565b5b6040519080825280601f01601f1916602001820160405280156124e75781602001600182028036833780820191505090505b509050600082602001820190505b60011561254a578080600190039150507f3031323334353637383961626364656600000000000000000000000000000000600a86061a8153600a858161253e5761253d61393b565b5b049450600085036124f5575b819350505050919050565b60008073ffffffffffffffffffffffffffffffffffffffff168373ffffffffffffffffffffffffffffffffffffffff161415801561260d57508273ffffffffffffffffffffffffffffffffffffffff168473ffffffffffffffffffffffffffffffffffffffff1614806125ce57506125cd8484611530565b5b8061260c57508273ffffffffffffffffffffffffffffffffffffffff166125f483611738565b73ffffffffffffffffffffffffffffffffffffffff16145b5b90509392505050565b600073ffffffffffffffffffffffffffffffffffffffff168273ffffffffffffffffffffffffffffffffffffffff16036126885760006040517f64a0ae9200000000000000000000000000000000000000000000000000000000815260040161267f9190612ae4565b60405180910390fd5b60006126968383600061178f565b9050600073ffffffffffffffffffffffffffffffffffffffff168173ffffffffffffffffffffffffffffffffffffffff161461270a5760006040517f73c6ac6e0000000000000000000000000000000000000000000000000000000081526004016127019190612ae4565b60405180910390fd5b505050565b600080600090507a184f03e93ff9f4daa797ed6e38ed64bf6a1f010000000000000000831061276d577a184f03e93ff9f4daa797ed6e38ed64bf6a1f01000000000000000083816127635761276261393b565b5b0492506040810190505b6d04ee2d6d415b85acef810000000083106127aa576d04ee2d6d415b85acef810000000083816127a05761279f61393b565b5b0492506020810190505b662386f26fc1000083106127d957662386f26fc1000083816127cf576127ce61393b565b5b0492506010810190505b6305f5e1008310612802576305f5e10083816127f8576127f761393b565b5b0492506008810190505b612710831061282757612710838161281d5761281c61393b565b5b0492506004810190505b6064831061284a57606483816128405761283f61393b565b5b0492506002810190505b600a8310612859576001810190505b80915050919050565b6040518060a0016040528060008152602001600073ffffffffffffffffffffffffffffffffffffffff168152602001600073ffffffffffffffffffffffffffffffffffffffff168152602001600081526020016000151581525090565b6000604051905090565b600080fd5b600080fd5b60007fffffffff0000000000000000000000000000000000000000000000000000000082169050919050565b612908816128d3565b811461291357600080fd5b50565b600081359050612925816128ff565b92915050565b600060208284031215612941576129406128c9565b5b600061294f84828501612916565b91505092915050565b60008115159050919050565b61296d81612958565b82525050565b60006020820190506129886000830184612964565b92915050565b600081519050919050565b600082825260208201905092915050565b60005b838110156129c85780820151818401526020810190506129ad565b60008484015250505050565b6000601f19601f8301169050919050565b60006129f08261298e565b6129fa8185612999565b9350612a0a8185602086016129aa565b612a13816129d4565b840191505092915050565b60006020820190508181036000830152612a3881846129e5565b905092915050565b6000819050919050565b612a5381612a40565b8114612a5e57600080fd5b50565b600081359050612a7081612a4a565b92915050565b600060208284031215612a8c57612a8b6128c9565b5b6000612a9a84828501612a61565b91505092915050565b600073ffffffffffffffffffffffffffffffffffffffff82169050919050565b6000612ace82612aa3565b9050919050565b612ade81612ac3565b82525050565b6000602082019050612af96000830184612ad5565b92915050565b612b0881612ac3565b8114612b1357600080fd5b50565b600081359050612b2581612aff565b92915050565b60008060408385031215612b4257612b416128c9565b5b6000612b5085828601612b16565b9250506020612b6185828601612a61565b9150509250929050565b600080600060608486031215612b8457612b836128c9565b5b6000612b9286828701612b16565b9350506020612ba386828701612b16565b9250506040612bb486828701612a61565b9150509250925092565b600081519050919050565b600082825260208201905092915050565b6000819050602082019050919050565b612bf381612a40565b82525050565b6000612c0482612aa3565b9050919050565b612c1481612bf9565b82525050565b612c2381612958565b82525050565b60a082016000820151612c3f6000850182612bea565b506020820151612c526020850182612c0b565b506040820151612c656040850182612c0b565b506060820151612c786060850182612bea565b506080820151612c8b6080850182612c1a565b50505050565b6000612c9d8383612c29565b60a08301905092915050565b6000602082019050919050565b6000612cc182612bbe565b612ccb8185612bc9565b9350612cd683612bda565b8060005b83811015612d07578151612cee8882612c91565b9750612cf983612ca9565b925050600181019050612cda565b5085935050505092915050565b60006020820190508181036000830152612d2e8184612cb6565b905092915050565b612d3f81612a40565b82525050565b6000602082019050612d5a6000830184612d36565b92915050565b600060208284031215612d7657612d756128c9565b5b6000612d8484828501612b16565b91505092915050565b600080fd5b600080fd5b7f4e487b7100000000000000000000000000000000000000000000000000000000600052604160045260246000fd5b612dcf826129d4565b810181811067ffffffffffffffff82111715612dee57612ded612d97565b5b80604052505050565b6000612e016128bf565b9050612e0d8282612dc6565b919050565b600067ffffffffffffffff821115612e2d57612e2c612d97565b5b612e36826129d4565b9050602081019050919050565b82818337600083830152505050565b6000612e65612e6084612e12565b612df7565b905082815260208101848484011115612e8157612e80612d92565b5b612e8c848285612e43565b509392505050565b600082601f830112612ea957612ea8612d8d565b5b8135612eb9848260208601612e52565b91505092915050565b60008060408385031215612ed957612ed86128c9565b5b600083013567ffffffffffffffff811115612ef757612ef66128ce565b5b612f0385828601612e94565b9250506020612f1485828601612a61565b9150509250929050565b612f2781612bf9565b82525050565b6000602082019050612f426000830184612f1e565b92915050565b60a082016000820151612f5e6000850182612bea565b506020820151612f716020850182612c0b565b506040820151612f846040850182612c0b565b506060820151612f976060850182612bea565b506080820151612faa6080850182612c1a565b50505050565b600060a082019050612fc56000830184612f48565b92915050565b612fd481612958565b8114612fdf57600080fd5b50565b600081359050612ff181612fcb565b92915050565b6000806040838503121561300e5761300d6128c9565b5b600061301c85828601612b16565b925050602061302d85828601612fe2565b9150509250929050565b600067ffffffffffffffff82111561305257613051612d97565b5b61305b826129d4565b9050602081019050919050565b600061307b61307684613037565b612df7565b90508281526020810184848401111561309757613096612d92565b5b6130a2848285612e43565b509392505050565b600082601f8301126130bf576130be612d8d565b5b81356130cf848260208601613068565b91505092915050565b600080600080608085870312156130f2576130f16128c9565b5b600061310087828801612b16565b945050602061311187828801612b16565b935050604061312287828801612a61565b925050606085013567ffffffffffffffff811115613143576131426128ce565b5b61314f878288016130aa565b91505092959194509250565b60008060408385031215613172576131716128c9565b5b600061318085828601612b16565b925050602061319185828601612b16565b9150509250929050565b7f4e487b7100000000000000000000000000000000000000000000000000000000600052602260045260246000fd5b600060028204905060018216806131e257607f821691505b6020821081036131f5576131f461319b565b5b50919050565b60006060820190506132106000830186612ad5565b61321d6020830185612d36565b61322a6040830184612ad5565b949350505050565b7f4e487b7100000000000000000000000000000000000000000000000000000000600052601160045260246000fd5b600061326c82612a40565b915061327783612a40565b925082820190508082111561328f5761328e613232565b5b92915050565b7f4e487b7100000000000000000000000000000000000000000000000000000000600052603260045260246000fd5b7f506c65617365207375626d6974207468652061736b696e67207072696365206960008201527f6e206f7264657220746f20636f6d706c65746520746865207075726368617365602082015250565b6000613320604083612999565b915061332b826132c4565b604082019050919050565b6000602082019050818103600083015261334f81613313565b9050919050565b7f4f6e6c79206f776e65722063616e20757064617465206c697374696e6720707260008201527f6963650000000000000000000000000000000000000000000000000000000000602082015250565b60006133b2602383612999565b91506133bd82613356565b604082019050919050565b600060208201905081810360008301526133e1816133a5565b9050919050565b600081905092915050565b60006133fe8261298e565b61340881856133e8565b93506134188185602086016129aa565b80840191505092915050565b600061343082856133f3565b915061343c82846133f3565b91508190509392505050565b60008190508160005260206000209050919050565b60006020601f8301049050919050565b600082821b905092915050565b6000600883026134aa7fffffffffffffffffffffffffffffffffffffffffffffffffffffffffffffffff8261346d565b6134b4868361346d565b95508019841693508086168417925050509392505050565b6000819050919050565b60006134f16134ec6134e784612a40565b6134cc565b612a40565b9050919050565b6000819050919050565b61350b836134d6565b61351f613517826134f8565b84845461347a565b825550505050565b600090565b613534613527565b61353f818484613502565b505050565b5b818110156135635761355860008261352c565b600181019050613545565b5050565b601f8211156135a85761357981613448565b6135828461345d565b81016020851015613591578190505b6135a561359d8561345d565b830182613544565b50505b505050565b600082821c905092915050565b60006135cb600019846008026135ad565b1980831691505092915050565b60006135e483836135ba565b9150826002028217905092915050565b6135fd8261298e565b67ffffffffffffffff81111561361657613615612d97565b5b61362082546131ca565b61362b828285613567565b600060209050601f83116001811461365e576000841561364c578287015190505b61365685826135d8565b8655506136be565b601f19841661366c86613448565b60005b828110156136945784890151825560018201915060208501945060208101905061366f565b868310156136b157848901516136ad601f8916826135ba565b8355505b6001600288020188555050505b505050505050565b7f486f706566756c6c792073656e64696e672074686520636f727265637420707260008201527f6963650000000000000000000000000000000000000000000000000000000000602082015250565b6000613722602383612999565b915061372d826136c6565b604082019050919050565b6000602082019050818103600083015261375181613715565b9050919050565b7f4d616b652073757265207468652070726963652069736e2774206e656761746960008201527f7665000000000000000000000000000000000000000000000000000000000000602082015250565b60006137b4602283612999565b91506137bf82613758565b604082019050919050565b600060208201905081810360008301526137e3816137a7565b9050919050565b60006080820190506137ff6000830187612ad5565b61380c6020830186612ad5565b6138196040830185612d36565b6138266060830184612964565b95945050505050565b600081519050919050565b600082825260208201905092915050565b60006138568261382f565b613860818561383a565b93506138708185602086016129aa565b613879816129d4565b840191505092915050565b60006080820190506138996000830187612ad5565b6138a66020830186612ad5565b6138b36040830185612d36565b81810360608301526138c5818461384b565b905095945050505050565b6000815190506138df816128ff565b92915050565b6000602082840312156138fb576138fa6128c9565b5b6000613909848285016138d0565b91505092915050565b60006040820190506139276000830185612ad5565b6139346020830184612d36565b9392505050565b7f4e487b7100000000000000000000000000000000000000000000000000000000600052601260045260246000fdfea2646970667358221220b349cc750e4d507ee5a90217b31a862ff4d88d94c169902c350fa50a692cac5e64736f6c634300081c0033",
  "linkReferences": {},
  "deployedLinkReferences": {}
}